{
  "_format": "hh-sol-artifact-1",
  "contractName": "FHEDiceGame",
  "sourceName": "contracts/FHEDiceGame.sol",
  "abi": [
    {
      "inputs": [],
      "stateMutability": "nonpayable",
      "type": "constructor"
    },
    {
      "inputs": [],
      "name": "IncorrectEntryFee",
      "type": "error"
    },
    {
      "inputs": [],
      "name": "OnlyOwnerCanWithdraw",
      "type": "error"
    },
    {
      "inputs": [],
      "name": "ENTRY_FEE",
      "outputs": [
        {
          "internalType": "uint256",
          "name": "",
          "type": "uint256"
        }
      ],
      "stateMutability": "view",
      "type": "function"
    },
    {
      "inputs": [],
      "name": "getLastDiceRoll",
      "outputs": [
        {
          "internalType": "euint32",
          "name": "",
          "type": "bytes32"
        }
      ],
      "stateMutability": "view",
      "type": "function"
    },
    {
      "inputs": [],
      "name": "getPlayerGuess",
      "outputs": [
        {
          "internalType": "euint32",
          "name": "",
          "type": "bytes32"
        }
      ],
      "stateMutability": "view",
      "type": "function"
    },
    {
      "inputs": [],
      "name": "getWinnerStatus",
      "outputs": [
        {
          "internalType": "ebool",
          "name": "",
          "type": "bytes32"
        }
      ],
      "stateMutability": "view",
      "type": "function"
    },
    {
      "inputs": [],
      "name": "owner",
      "outputs": [
        {
          "internalType": "address",
          "name": "",
          "type": "address"
        }
      ],
      "stateMutability": "view",
      "type": "function"
    },
    {
      "inputs": [
        {
          "internalType": "externalEuint32",
          "name": "inputSeed",
          "type": "bytes32"
        },
        {
          "internalType": "bytes",
          "name": "seedProof",
          "type": "bytes"
        },
        {
          "internalType": "externalEuint32",
          "name": "inputGuess",
          "type": "bytes32"
        },
        {
          "internalType": "bytes",
          "name": "guessProof",
          "type": "bytes"
        }
      ],
      "name": "playDice",
      "outputs": [],
      "stateMutability": "payable",
      "type": "function"
    },
    {
      "inputs": [],
      "name": "protocolId",
      "outputs": [
        {
          "internalType": "uint256",
          "name": "",
          "type": "uint256"
        }
      ],
      "stateMutability": "pure",
      "type": "function"
    },
    {
      "inputs": [],
      "name": "withdraw",
      "outputs": [],
      "stateMutability": "nonpayable",
      "type": "function"
    },
    {
      "stateMutability": "payable",
      "type": "receive"
    }
  ],
  "bytecode": "0x608060405234801561000f575f5ffd5b5061018a6100ae604080516080810182525f80825260208201819052918101829052606081019190915250604080516080810182527350157cffd6bbfa2dece204a89ec419c23ef5755d815273cd3ab3bd6bcc0c0bf3e27912a92043e817b1cf69602082015273a02cda4ca3a71d7c46997716f4283aa851c2881291810191909152731364cbbf2cdf5032c47d8226a6f6fbd2afcdacac606082015290565b80517f9e7b61f58c47dc699ac88507c4f5bb9f121c03808c5676a8078fe583e464970080546001600160a01b03199081166001600160a01b039384161790915560208301517f9e7b61f58c47dc699ac88507c4f5bb9f121c03808c5676a8078fe583e46497018054831691841691909117905560408301517f9e7b61f58c47dc699ac88507c4f5bb9f121c03808c5676a8078fe583e46497028054831691841691909117905560608301517f9e7b61f58c47dc699ac88507c4f5bb9f121c03808c5676a8078fe583e46497038054909216921691909117905550565b600380546001600160a01b03191633179055610af3806101a95f395ff3fe60806040526004361061007c575f3560e01c8063b30195001161004c578063b301950014610109578063da1f12ab1461011d578063dbcc338d14610131578063f6d361cc14610145575f5ffd5b806312df7abd146100875780633ccfd60b1461009c5780636b733fcc146100b05780638da5cb5b146100d2575f5ffd5b3661008357005b5f5ffd5b61009a6100953660046109bf565b61015e565b005b3480156100a7575f5ffd5b5061009a61027e565b3480156100bb575f5ffd5b505f545b6040519081526020015b60405180910390f35b3480156100dd575f5ffd5b506003546100f1906001600160a01b031681565b6040516001600160a01b0390911681526020016100c9565b348015610114575f5ffd5b506001546100bf565b348015610128575f5ffd5b506127116100bf565b34801561013c575f5ffd5b506002546100bf565b348015610150575f5ffd5b506100bf65b5e620f4800081565b65b5e620f48000341461018457604051630440523d60e41b815260040160405180910390fd5b5f6101c48787878080601f0160208091040260200160405190810160405280939291908181526020018383808284375f920191909152506102e292505050565b90505f6102068585858080601f0160208091040260200160405190810160405280939291908181526020018383808284375f920191909152506102e292505050565b60018190559050610216826102f6565b5f8190556001546102279190610369565b6002555f5461023590610397565b506102415f54336103a6565b5061024d600154610397565b5061025a600154336103a6565b50610266600254610397565b50610273600254336103a6565b505050505050505050565b6003546001600160a01b031633146102a9576040516347418db160e01b815260040160405180910390fd5b6003546040516001600160a01b03909116904780156108fc02915f818181858888f193505050501580156102df573d5f5f3e3d5ffd5b50565b5f6102ef838360046103b8565b9392505050565b5f5f610302602a6104d8565b90505f61030f84836104f0565b90505f61031c60076104d8565b90505f610329838361051e565b90505f61033660016104d8565b90505f61034383836104f0565b90505f61035060066104d8565b905061035c828261054c565b9998505050505050505050565b5f8261037b576103785f6104d8565b92505b8161038c576103895f6104d8565b91505b6102ef83835f61057a565b5f6103a2823061065d565b5090565b5f6103b1838361065d565b5090919050565b7f9e7b61f58c47dc699ac88507c4f5bb9f121c03808c5676a8078fe583e46497015460405163196d0b9b60e01b81525f917f9e7b61f58c47dc699ac88507c4f5bb9f121c03808c5676a8078fe583e4649700916001600160a01b039091169063196d0b9b90610431908890339089908990600401610a61565b6020604051808303815f875af115801561044d573d5f5f3e3d5ffd5b505050506040513d601f19601f820116820180604052508101906104719190610abb565b8154604051630f8e573b60e21b8152600481018390523360248201529193506001600160a01b031690633e395cec906044015f604051808303815f87803b1580156104ba575f5ffd5b505af11580156104cc573d5f5f3e3d5ffd5b50505050509392505050565b5f6104ea8263ffffffff1660046106e6565b92915050565b5f82610502576104ff5f6104d8565b92505b81610513576105105f6104d8565b91505b6102ef83835f6107a3565b5f826105305761052d5f6104d8565b92505b816105415761053e5f6104d8565b91505b6102ef83835f610840565b5f8261055e5761055b5f6104d8565b92505b8161056f5761056c5f6104d8565b91505b6102ef83835f6108dd565b5f5f821561058d5750600160f81b610590565b505f5b7f9e7b61f58c47dc699ac88507c4f5bb9f121c03808c5676a8078fe583e46497015460405163f77f3f1d60e01b815260048101879052602481018690526001600160f81b0319831660448201527f9e7b61f58c47dc699ac88507c4f5bb9f121c03808c5676a8078fe583e4649700916001600160a01b03169063f77f3f1d906064015b6020604051808303815f875af115801561062f573d5f5f3e3d5ffd5b505050506040513d601f19601f820116820180604052508101906106539190610abb565b9695505050505050565b5f7f9e7b61f58c47dc699ac88507c4f5bb9f121c03808c5676a8078fe583e46497008054604051635ca4b5b160e11b8152600481018690526001600160a01b03858116602483015292935091169063b9496b62906044015f604051808303815f87803b1580156106cb575f5ffd5b505af11580156106dd573d5f5f3e3d5ffd5b50505050505050565b7f9e7b61f58c47dc699ac88507c4f5bb9f121c03808c5676a8078fe583e464970154604051639cd07acb60e01b81525f917f9e7b61f58c47dc699ac88507c4f5bb9f121c03808c5676a8078fe583e4649700916001600160a01b0390911690639cd07acb9061075b9087908790600401610ad2565b6020604051808303815f875af1158015610777573d5f5f3e3d5ffd5b505050506040513d601f19601f8201168201806040525081019061079b9190610abb565b949350505050565b5f5f82156107b65750600160f81b6107b9565b505f5b7f9e7b61f58c47dc699ac88507c4f5bb9f121c03808c5676a8078fe583e46497015460405163022f65e760e31b815260048101879052602481018690526001600160f81b0319831660448201527f9e7b61f58c47dc699ac88507c4f5bb9f121c03808c5676a8078fe583e4649700916001600160a01b03169063117b2f3890606401610613565b5f5f82156108535750600160f81b610856565b505f5b7f9e7b61f58c47dc699ac88507c4f5bb9f121c03808c5676a8078fe583e46497015460405163d99882d560e01b815260048101879052602481018690526001600160f81b0319831660448201527f9e7b61f58c47dc699ac88507c4f5bb9f121c03808c5676a8078fe583e4649700916001600160a01b03169063d99882d590606401610613565b5f5f82156108f05750600160f81b6108f3565b505f5b7f9e7b61f58c47dc699ac88507c4f5bb9f121c03808c5676a8078fe583e4649701546040516304559f7160e01b815260048101879052602481018690526001600160f81b0319831660448201527f9e7b61f58c47dc699ac88507c4f5bb9f121c03808c5676a8078fe583e4649700916001600160a01b0316906304559f7190606401610613565b5f5f83601f84011261098a575f5ffd5b50813567ffffffffffffffff8111156109a1575f5ffd5b6020830191508360208285010111156109b8575f5ffd5b9250929050565b5f5f5f5f5f5f608087890312156109d4575f5ffd5b86359550602087013567ffffffffffffffff8111156109f1575f5ffd5b6109fd89828a0161097a565b90965094505060408701359250606087013567ffffffffffffffff811115610a23575f5ffd5b610a2f89828a0161097a565b979a9699509497509295939492505050565b60548110610a5d57634e487b7160e01b5f52602160045260245ffd5b9052565b8481526001600160a01b0384166020820152608060408201525f8351806080840152806020860160a085015e5f60a0828501015260a0601f19601f830116840101915050610ab26060830184610a41565b95945050505050565b5f60208284031215610acb575f5ffd5b5051919050565b828152604081016102ef6020830184610a4156fea164736f6c634300081b000a",
  "linkReferences": {},
  "deployedLinkReferences": {}
}